:0200000047288F
:1000060002308312CC004930CD00CD0B0828CC0B32
:080016000828000000000800AA
:10001E00831293010F08C1000130C000410803197B
:10002E001C28C00D4010FF3E1628400892000E08F6
:10003E00840040080005C10041080130031D003056
:10004E00C0001108C006031944281008003C03180C
:10005E0034280320032090032C280E088400120855
:10006E000005C10041080130031D0030C000110819
:10007E00C00603194428FF3093001308C00008007F
:10008E00831686011F3085008312860105308E008F
:10009E008F0164309000013091000F204008031949
:1000AE005928061405308E0001308F006430900000
:1000BE00013091000F204008031966288614053080
:1000CE008E0002308F0064309000013091000F20BE
:1000DE00400803197328061505308E0003308F0073
:1000EE0064309000013091000F20400803198028E1
:1000FE00861505308E0004308F006430900001307C
:10010E0091000F20400803198E28FF3086004D28DD
:02011E008F2828
:02400E00FA3F77
:00000001FF
